{
  "contractName": "PayForContents",
  "abi": [
    {
      "constant": true,
      "inputs": [
        {
          "name": "",
          "type": "address"
        }
      ],
      "name": "userInfo",
      "outputs": [
        {
          "name": "endTime",
          "type": "uint256"
        },
        {
          "name": "status",
          "type": "bool"
        },
        {
          "name": "paidAmount",
          "type": "uint256"
        }
      ],
      "payable": false,
      "stateMutability": "view",
      "type": "function"
    },
    {
      "inputs": [],
      "payable": false,
      "stateMutability": "nonpayable",
      "type": "constructor"
    },
    {
      "constant": false,
      "inputs": [],
      "name": "pay",
      "outputs": [],
      "payable": true,
      "stateMutability": "payable",
      "type": "function"
    },
    {
      "constant": true,
      "inputs": [
        {
          "name": "_from",
          "type": "address"
        }
      ],
      "name": "getUserStatus",
      "outputs": [
        {
          "name": "",
          "type": "bool"
        }
      ],
      "payable": false,
      "stateMutability": "view",
      "type": "function"
    },
    {
      "constant": true,
      "inputs": [
        {
          "name": "_from",
          "type": "address"
        }
      ],
      "name": "getPaidAmount",
      "outputs": [
        {
          "name": "amount",
          "type": "uint256"
        }
      ],
      "payable": false,
      "stateMutability": "view",
      "type": "function"
    },
    {
      "constant": true,
      "inputs": [],
      "name": "test",
      "outputs": [
        {
          "name": "",
          "type": "string"
        }
      ],
      "payable": false,
      "stateMutability": "pure",
      "type": "function"
    }
  ],
  "bytecode": "0x608060405234801561001057600080fd5b5061046d806100206000396000f30060806040526004361061006d576000357c0100000000000000000000000000000000000000000000000000000000900463ffffffff1680631959a002146100725780631b9265b8146100db5780637dce0500146100e5578063ea0d5dcd1461013c578063f8a8fd6d14610197575b600080fd5b34801561007e57600080fd5b506100b3600480360381019080803573ffffffffffffffffffffffffffffffffffffffff169060200190929190505050610227565b6040518084815260200183151515158152602001828152602001935050505060405180910390f35b6100e361025e565b005b3480156100f157600080fd5b50610126600480360381019080803573ffffffffffffffffffffffffffffffffffffffff169060200190929190505050610361565b6040518082815260200191505060405180910390f35b34801561014857600080fd5b5061017d600480360381019080803573ffffffffffffffffffffffffffffffffffffffff1690602001909291905050506103ac565b604051808215151515815260200191505060405180910390f35b3480156101a357600080fd5b506101ac610404565b6040518080602001828103825283818151815260200191508051906020019080838360005b838110156101ec5780820151818401526020810190506101d1565b50505050905090810190601f1680156102195780820380516001836020036101000a031916815260200191505b509250505060405180910390f35b60006020528060005260406000206000915090508060000154908060010160009054906101000a900460ff16908060020154905083565b60003411151561026d57600080fd5b346000803373ffffffffffffffffffffffffffffffffffffffff1673ffffffffffffffffffffffffffffffffffffffff16815260200190815260200160002060020160008282540192505081905550603c42016000803373ffffffffffffffffffffffffffffffffffffffff1673ffffffffffffffffffffffffffffffffffffffff1681526020019081526020016000206000018190555060016000803373ffffffffffffffffffffffffffffffffffffffff1673ffffffffffffffffffffffffffffffffffffffff16815260200190815260200160002060010160006101000a81548160ff021916908315150217905550565b60008060008373ffffffffffffffffffffffffffffffffffffffff1673ffffffffffffffffffffffffffffffffffffffff168152602001908152602001600020600201549050919050565b60008060008373ffffffffffffffffffffffffffffffffffffffff1673ffffffffffffffffffffffffffffffffffffffff16815260200190815260200160002060010160009054906101000a900460ff169050919050565b60606040805190810160405280600281526020017f4f4b0000000000000000000000000000000000000000000000000000000000008152509050905600a165627a7a72305820c9120a46ed0d34b1cabc724db7a58393a897197cdec6dc5f1f3ec02aa71532be0029",
  "source": "pragma solidity ^0.4.22;\n\n\ncontract PayForContents {\n\n  struct Info {\n    uint endTime;\n    bool status;\n    uint paidAmount;\n  }\n\n  //ToDo いずれZeppelin使う\n  // address public owner;\n  // address public service;\n\n  //\n\n  mapping(address => Info) public userInfo;\n\n  constructor() {\n    //owner = msg.sender;\n  }\n\n  function pay() public payable {\n    require(msg.value > 0);\n    userInfo[msg.sender].paidAmount += msg.value;\n    userInfo[msg.sender].endTime = now + 60; //1 minute\n    userInfo[msg.sender].status = true;    \n  }\n\n  function getUserStatus(address _from) public view returns (bool){\n    return userInfo[_from].status;\n  }\n\n  function getPaidAmount(address _from) public view returns (uint amount) {\n    return userInfo[_from].paidAmount;\n  }\n\n  function test() public pure returns (string) {\n    return \"OK\";\n  }\n\n  // function getBalance() public view returns (uint amount) {\n  //   return this.balance;\n  // }\n\n}\n",
  "sourcePath": "C:\\Users\\Daisuke\\Documents\\truffle-sample\\dapp\\contracts\\PayForContents.sol",
  "compiler": {
    "name": "solc",
    "version": "0.4.24+commit.e67f0147.Emscripten.clang"
  },
  "schemaVersion": "2.0.1",
  "updatedAt": "2018-10-16T16:13:24.866Z"
}